{"abi":[{"type":"function","name":"add_IOU","inputs":[{"name":"creditor","type":"address","internalType":"address"},{"name":"amount","type":"uint32","internalType":"uint32"},{"name":"path","type":"address[]","internalType":"address[]"}],"outputs":[],"stateMutability":"nonpayable"},{"type":"function","name":"debts","inputs":[{"name":"","type":"address","internalType":"address"},{"name":"","type":"address","internalType":"address"}],"outputs":[{"name":"","type":"uint32","internalType":"uint32"}],"stateMutability":"view"},{"type":"function","name":"lookup","inputs":[{"name":"debtor","type":"address","internalType":"address"},{"name":"creditor","type":"address","internalType":"address"}],"outputs":[{"name":"ret","type":"uint32","internalType":"uint32"}],"stateMutability":"view"},{"type":"function","name":"neighbors","inputs":[{"name":"","type":"address","internalType":"address"},{"name":"","type":"uint256","internalType":"uint256"}],"outputs":[{"name":"","type":"address","internalType":"address"}],"stateMutability":"view"}],"bytecode":{"object":"0x608060405234801561001057600080fd5b50611632806100206000396000f3fe608060405234801561001057600080fd5b506004361061004c5760003560e01c80634ac1c33d14610051578063713584a614610081578063abdb3a68146100b1578063dd033b8d146100e1575b600080fd5b61006b600480360381019061006691906110f3565b6100fd565b6040516100789190611152565b60405180910390f35b61009b600480360381019061009691906110f3565b61012f565b6040516100a89190611152565b60405180910390f35b6100cb60048036038101906100c691906111a3565b6101c5565b6040516100d891906111f2565b60405180910390f35b6100fb60048036038101906100f69190611392565b610213565b005b60006020528160005260406000206020528060005260406000206000915091509054906101000a900463ffffffff1681565b60008060008473ffffffffffffffffffffffffffffffffffffffff1673ffffffffffffffffffffffffffffffffffffffff16815260200190815260200160002060008373ffffffffffffffffffffffffffffffffffffffff1673ffffffffffffffffffffffffffffffffffffffff16815260200190815260200160002060009054906101000a900463ffffffff16905092915050565b600160205281600052604060002081815481106101e157600080fd5b906000526020600020016000915091509054906101000a900473ffffffffffffffffffffffffffffffffffffffff1681565b60008263ffffffff161161025c576040517f08c379a00000000000000000000000000000000000000000000000000000000081526004016102539061145e565b60405180910390fd5b60003390508373ffffffffffffffffffffffffffffffffffffffff168173ffffffffffffffffffffffffffffffffffffffff160361029a57506107b2565b600080806102a887856107b7565b9150915081156105255763ffffffff925060005b600182516102ca91906114ad565b8110156103cd5760008060008484815181106102e9576102e86114e1565b5b602002602001015173ffffffffffffffffffffffffffffffffffffffff1673ffffffffffffffffffffffffffffffffffffffff16815260200190815260200160002060008460018561033b9190611510565b8151811061034c5761034b6114e1565b5b602002602001015173ffffffffffffffffffffffffffffffffffffffff1673ffffffffffffffffffffffffffffffffffffffff16815260200190815260200160002060009054906101000a900463ffffffff1690508463ffffffff168163ffffffff1610156103b9578094505b5080806103c590611544565b9150506102bc565b508263ffffffff168663ffffffff1610156103e6578592505b60005b600182516103f791906114ad565b811015610515576000828281518110610413576104126114e1565b5b6020026020010151905060008360018461042d9190611510565b8151811061043e5761043d6114e1565b5b60200260200101519050856000808473ffffffffffffffffffffffffffffffffffffffff1673ffffffffffffffffffffffffffffffffffffffff16815260200190815260200160002060008373ffffffffffffffffffffffffffffffffffffffff1673ffffffffffffffffffffffffffffffffffffffff16815260200190815260200160002060008282829054906101000a900463ffffffff166104e2919061158c565b92506101000a81548163ffffffff021916908363ffffffff1602179055505050808061050d90611544565b9150506103e9565b508286610522919061158c565b95505b60008663ffffffff1611156107ad576000805b600160008773ffffffffffffffffffffffffffffffffffffffff1673ffffffffffffffffffffffffffffffffffffffff1681526020019081526020016000208054905081101561064c578873ffffffffffffffffffffffffffffffffffffffff16600160008873ffffffffffffffffffffffffffffffffffffffff1673ffffffffffffffffffffffffffffffffffffffff16815260200190815260200160002082815481106105ea576105e96114e1565b5b9060005260206000200160009054906101000a900473ffffffffffffffffffffffffffffffffffffffff1673ffffffffffffffffffffffffffffffffffffffff1603610639576001915061064c565b808061064490611544565b915050610538565b50806106f357600160008673ffffffffffffffffffffffffffffffffffffffff1673ffffffffffffffffffffffffffffffffffffffff168152602001908152602001600020889080600181540180825580915050600190039060005260206000200160009091909190916101000a81548173ffffffffffffffffffffffffffffffffffffffff021916908373ffffffffffffffffffffffffffffffffffffffff1602179055505b866000808773ffffffffffffffffffffffffffffffffffffffff1673ffffffffffffffffffffffffffffffffffffffff16815260200190815260200160002060008a73ffffffffffffffffffffffffffffffffffffffff1673ffffffffffffffffffffffffffffffffffffffff16815260200190815260200160002060008282829054906101000a900463ffffffff1661078d91906115c4565b92506101000a81548163ffffffff021916908363ffffffff160217905550505b505050505b505050565b600060606000606467ffffffffffffffff8111156107d8576107d761124f565b5b6040519080825280602002602001820160405280156108065781602001602082028036833780820191505090505b5090506000806000606467ffffffffffffffff8111156108295761082861124f565b5b6040519080825280602002602001820160405280156108575781602001602082028036833780820191505090505b5090506000606467ffffffffffffffff8111156108775761087661124f565b5b6040519080825280602002602001820160405280156108a55781602001602082028036833780820191505090505b5090506000898685815181106108be576108bd6114e1565b5b602002602001019073ffffffffffffffffffffffffffffffffffffffff16908173ffffffffffffffffffffffffffffffffffffffff1681525050838061090390611544565b9450508983828151811061091a576109196114e1565b5b602002602001019073ffffffffffffffffffffffffffffffffffffffff16908173ffffffffffffffffffffffffffffffffffffffff16815250506000828281518110610969576109686114e1565b5b602002602001019073ffffffffffffffffffffffffffffffffffffffff16908173ffffffffffffffffffffffffffffffffffffffff168152505080806109ae90611544565b91505060005b84861015610d705760008787815181106109d1576109d06114e1565b5b6020026020010151905086806109e690611544565b9750508a73ffffffffffffffffffffffffffffffffffffffff168173ffffffffffffffffffffffffffffffffffffffff1603610a26576001915050610d70565b6000600160008373ffffffffffffffffffffffffffffffffffffffff1673ffffffffffffffffffffffffffffffffffffffff168152602001908152602001600020805480602002602001604051908101604052809291908181526020018280548015610ae757602002820191906000526020600020905b8160009054906101000a900473ffffffffffffffffffffffffffffffffffffffff1673ffffffffffffffffffffffffffffffffffffffff1681526020019060010190808311610a9d575b5050505050905060005b8151811015610d68576000828281518110610b0f57610b0e6114e1565b5b6020026020010151905060008060008673ffffffffffffffffffffffffffffffffffffffff1673ffffffffffffffffffffffffffffffffffffffff16815260200190815260200160002060008373ffffffffffffffffffffffffffffffffffffffff1673ffffffffffffffffffffffffffffffffffffffff16815260200190815260200160002060009054906101000a900463ffffffff1663ffffffff161115610d54576000805b87811015610c28578273ffffffffffffffffffffffffffffffffffffffff168a8281518110610be957610be86114e1565b5b602002602001015173ffffffffffffffffffffffffffffffffffffffff1603610c155760019150610c28565b8080610c2090611544565b915050610bb7565b5080610d525781898881518110610c4257610c416114e1565b5b602002602001019073ffffffffffffffffffffffffffffffffffffffff16908173ffffffffffffffffffffffffffffffffffffffff168152505084888881518110610c9057610c8f6114e1565b5b602002602001019073ffffffffffffffffffffffffffffffffffffffff16908173ffffffffffffffffffffffffffffffffffffffff16815250508680610cd590611544565b975050818c8b81518110610cec57610ceb6114e1565b5b602002602001019073ffffffffffffffffffffffffffffffffffffffff16908173ffffffffffffffffffffffffffffffffffffffff16815250508980610d3190611544565b9a5050606487101580610d45575060648a10155b15610d51575050610d68565b5b505b508080610d6090611544565b915050610af1565b5050506109b4565b80156110235760008267ffffffffffffffff811115610d9257610d9161124f565b5b604051908082528060200260200182016040528015610dc05781602001602082028036833780820191505090505b5090506000808c90505b600073ffffffffffffffffffffffffffffffffffffffff168173ffffffffffffffffffffffffffffffffffffffff1614610f215780838381518110610e1257610e116114e1565b5b602002602001019073ffffffffffffffffffffffffffffffffffffffff16908173ffffffffffffffffffffffffffffffffffffffff16815250508180610e5790611544565b9250508d73ffffffffffffffffffffffffffffffffffffffff168173ffffffffffffffffffffffffffffffffffffffff160315610f215760005b85811015610f1b578173ffffffffffffffffffffffffffffffffffffffff16888281518110610ec357610ec26114e1565b5b602002602001015173ffffffffffffffffffffffffffffffffffffffff1603610f0857868181518110610ef957610ef86114e1565b5b60200260200101519150610f1b565b8080610f1390611544565b915050610e91565b50610dca565b60008267ffffffffffffffff811115610f3d57610f3c61124f565b5b604051908082528060200260200182016040528015610f6b5781602001602082028036833780820191505090505b50905060005b8381101561100b578481600186610f8891906114ad565b610f9291906114ad565b81518110610fa357610fa26114e1565b5b6020026020010151828281518110610fbe57610fbd6114e1565b5b602002602001019073ffffffffffffffffffffffffffffffffffffffff16908173ffffffffffffffffffffffffffffffffffffffff1681525050808061100390611544565b915050610f71565b506001819c509c50505050505050505050505061107a565b60008067ffffffffffffffff81111561103f5761103e61124f565b5b60405190808252806020026020018201604052801561106d5781602001602082028036833780820191505090505b5098509850505050505050505b9250929050565b6000604051905090565b600080fd5b600080fd5b600073ffffffffffffffffffffffffffffffffffffffff82169050919050565b60006110c082611095565b9050919050565b6110d0816110b5565b81146110db57600080fd5b50565b6000813590506110ed816110c7565b92915050565b6000806040838503121561110a5761110961108b565b5b6000611118858286016110de565b9250506020611129858286016110de565b9150509250929050565b600063ffffffff82169050919050565b61114c81611133565b82525050565b60006020820190506111676000830184611143565b92915050565b6000819050919050565b6111808161116d565b811461118b57600080fd5b50565b60008135905061119d81611177565b92915050565b600080604083850312156111ba576111b961108b565b5b60006111c8858286016110de565b92505060206111d98582860161118e565b9150509250929050565b6111ec816110b5565b82525050565b600060208201905061120760008301846111e3565b92915050565b61121681611133565b811461122157600080fd5b50565b6000813590506112338161120d565b92915050565b600080fd5b6000601f19601f8301169050919050565b7f4e487b7100000000000000000000000000000000000000000000000000000000600052604160045260246000fd5b6112878261123e565b810181811067ffffffffffffffff821117156112a6576112a561124f565b5b80604052505050565b60006112b9611081565b90506112c5828261127e565b919050565b600067ffffffffffffffff8211156112e5576112e461124f565b5b602082029050602081019050919050565b600080fd5b600061130e611309846112ca565b6112af565b90508083825260208201905060208402830185811115611331576113306112f6565b5b835b8181101561135a578061134688826110de565b845260208401935050602081019050611333565b5050509392505050565b600082601f83011261137957611378611239565b5b81356113898482602086016112fb565b91505092915050565b6000806000606084860312156113ab576113aa61108b565b5b60006113b9868287016110de565b93505060206113ca86828701611224565b925050604084013567ffffffffffffffff8111156113eb576113ea611090565b5b6113f786828701611364565b9150509250925092565b600082825260208201905092915050565b7f416d6f756e74206d75737420626520706f736974697665000000000000000000600082015250565b6000611448601783611401565b915061145382611412565b602082019050919050565b600060208201905081810360008301526114778161143b565b9050919050565b7f4e487b7100000000000000000000000000000000000000000000000000000000600052601160045260246000fd5b60006114b88261116d565b91506114c38361116d565b92508282039050818111156114db576114da61147e565b5b92915050565b7f4e487b7100000000000000000000000000000000000000000000000000000000600052603260045260246000fd5b600061151b8261116d565b91506115268361116d565b925082820190508082111561153e5761153d61147e565b5b92915050565b600061154f8261116d565b91507fffffffffffffffffffffffffffffffffffffffffffffffffffffffffffffffff82036115815761158061147e565b5b600182019050919050565b600061159782611133565b91506115a283611133565b9250828203905063ffffffff8111156115be576115bd61147e565b5b92915050565b60006115cf82611133565b91506115da83611133565b9250828201905063ffffffff8111156115f6576115f561147e565b5b9291505056fea26469706673582212201503431b726d00150bc3468fe3f3ab9b9767ad60875aef84c05f6e3d16e572bc64736f6c63430008110033","linkReferences":{}},"methodIdentifiers":{"add_IOU(address,uint32,address[])":"dd033b8d","debts(address,address)":"4ac1c33d","lookup(address,address)":"713584a6","neighbors(address,uint256)":"abdb3a68"},"id":0}